:100000000C941A030C9442030C9442030C94420384
:100010000C9442030C9442030C9442030C9442034C
:100020000C9442030C94CC140C9442030C944203A1
:100030000C9442030C9442030C9442030C9442032C
:100040000C942A140C9442030C949A140C94741477
:100050000C9442030C9442030C9442030C9442030C
:100060000C943E150C94420300000000003E5B4FD0
:100070005B3E3E6B4F6B3E1C3E7C3E1C183C7E3C08
:10008000181C577D571C1C5E7F5E1C00183C180016
:10009000FFE7C3E7FF0018241800FFE7DBE7FF30A6
:1000A000483A060E2629792926407F050507407F14
:1000B00005253F5A3CE73C5A7F3E1C1C08081C1C87
:1000C0003E7F14227F22145F5F005F5F06097F017D
:1000D0007F006689956A606060606094A2FFA29468
:1000E00008047E040810207E201008082A1C080836
:1000F0001C2A08081E101010100C1E0C1E0C303884
:100100003E3830060E3E0E06000000000000005F84
:1001100000000007000700147F147F14242A7F2AA0
:100120001223130864623649562050000807030062
:10013000001C2241000041221C002A1C7F1C2A08AE
:10014000083E080800807030000808080808000011
:1001500060600020100804023E5149453E00427F85
:10016000400072494949462141494D331814127FD4
:100170001027454545393C4A494931412111090774
:100180003649494936464949291E000014000000F5
:1001900040340000000814224114141414140041C7
:1001A00022140802015909063E415D594E7C121184
:1001B000127C7F494949363E414141227F414141BC
:1001C0003E7F494949417F090909013E4141517337
:1001D0007F0808087F00417F41002040413F017FA8
:1001E000081422417F404040407F021C027F7F0470
:1001F00008107F3E4141413E7F090909063E4151B9
:10020000215E7F09192946264949493203017F01A8
:10021000033F4040403F1F2040201F3F4038403FA9
:10022000631408146303047804036159494D4300BF
:100230007F4141410204081020004141417F0402F6
:10024000010204404040404000030708002054548D
:1002500078407F284444383844444428384444286B
:100260007F385454541800087E090218A4A49C78BE
:100270007F0804047800447D40002040403D007F1A
:100280001028440000417F40007C047804787C08FA
:100290000404783844444438FC18242418182424CE
:1002A00018FC7C08040408485454542404043F44B3
:1002B000243C4040207C1C2040201C3C4030403CE2
:1002C00044281028444C9090907C4464544C440042
:1002D00008364100000077000000413608000201A6
:1002E0000204023C2623263C1EA1A161123A404092
:1002F000207A38545455592155557941225454780F
:1003000042215554784020545579400C1E527212A7
:100310003955555559395454545939555454580030
:1003200000457C410002457D420001457C407D1234
:1003300011127DF0282528F07C5455450020545496
:100340007C547C0A097F4932494949323A44444441
:100350003A324A4848303A4141217A3A424020787C
:10036000009DA0A07D3D4242423D3D4040403D3C7D
:1003700024FF2424487E4943662B2FFC2F2BFF09A2
:1003800029F620C0887E0903205454794100004496
:100390007D413048484A32384040227A007A0A0A81
:1003A000727D0D19317D2629292F282629292926F4
:1003B00030484D4020380808080808080808382F39
:1003C00010C8ACBA2F102834FA00007B00000814C3
:1003D0002A142222142A14085500550055AA55AA99
:1003E00055AAFF55FF55FF000000FF00101010FF39
:1003F00000141414FF001010FF00FF1010F010F094
:10040000141414FC001414F700FF0000FF00FF1484
:1004100014F404FC141417101F10101F101F1414D0
:10042000141F00101010F0000000001F101010101A
:100430001F10101010F010000000FF10101010100E
:1004400010101010FF10000000FF140000FF00FF4C
:1004500000001F10170000FC04F4141417101714E8
:1004600014F404F40000FF00F7141414141414140A
:10047000F700F7141414171410101F101F1414147D
:10048000F4141010F010F000001F101F0000001FE7
:1004900014000000FC140000F010F01010FF10FF1A
:1004A000141414FF141010101F00000000F010FFAF
:1004B000FFFFFFFFF0F0F0F0F0FFFFFF0000000093
:1004C00000FFFF0F0F0F0F0F3844443844FC4A4A17
:1004D0004A347E02020606027E027E0263554941CC
:1004E000633844443C04407E201E2006027E020203
:1004F00099A5E7A5991C2A492A1C4C7201724C3017
:100500004A4D4D303048784830BC625A463D3E49ED
:100510004949007E0101017E2A2A2A2A2A44445F91
:10052000444440514A444040444A51400000FF0185
:1005300003E080FF000008086B6B08361236243693
:10054000060F090F060000181800000010100030F8
:1005500040FF0101001F01011E00191D1712003C80
:100560003C3C3C0000000000EF03038002CF03008E
:10057000C130ED0464031281E803850078CB0539AE
:100580002C003402F70120EA020000C00123C1015F
:1005900010C5023E28C701863601483701003A01DE
:1005A00055B1020018B603088227F20100260101A6
:1005B000E00F0F312B0C0E084EF1370710030E0918
:1005C00000E10F000E1403110731C148080F0C3170
:1005D000360F118029800000000000240027002A27
:1005E0000000000000230026002900000000080091
:1005F00002010000030407000000000000000001E9
:1006000002040810204080010204081020010204A6
:1006100008102000000000250028002B000404041E
:10062000040404040402020202020203030303039B
:100630000300591611241FBECFEFD8E0DEBFCDBF97
:1006400011E0A0E0B1E0E4E8F6E302C005900D920D
:10065000AA3FB107D9F723E0AAEFB1E001C01D928C
:10066000A937B207E1F713E0CAE1D3E004C021974C
:10067000FE010E94351BC931D107C9F70E944017FE
:100680000C94401B0C940000CF93DF93A0E7B0E0E4
:100690008C918E7F8C9341E050E060E070E040935D
:1006A000860250938702609388027093890285EDD9
:1006B00093E090938502809384028C918E7F8C933B
:1006C000E0EBF0E080818C7F8083E1EBF0E08081E3
:1006D000877F8083C6EBD0E088818F7D88838C9173
:1006E0008D7F8C9380818460808380818C7F8083E8
:1006F00086E090E0909383028093820210928A02B7
:10070000DF91CF910895833081F028F4813099F002
:100710008230A9F008958730A9F08830C9F084307C
:10072000B1F4809180008F7D03C0809180008F772D
:1007300080938000089584B58F7784BD089584B533
:100740008F7DFBCF8091B0008F778093B0000895AC
:100750008091B0008F7DF9CFCF93DF93282F30E0C9
:10076000F901E551FA4F8491F901E150FA4FD49122
:10077000F901E35EF94FC491CC23A1F081110E94ED
:100780008303EC2FF0E0EE0FFF1FEF51FA4FA5911E
:10079000B491EC91ED2381E090E009F480E0DF91E9
:1007A000CF91089580E090E0FACF80918A028F5F28
:1007B00080938A028091FA01909177029923D9F16E
:1007C00081110AC08FE00E94AC03892BB9F481E04B
:1007D0008093FA0110928A028091FA01813071F4BB
:1007E00080918A028B3051F48FE00E94AC03892BF8
:1007F000C1F482E08093FA0110928A028091FA019A
:10080000823009F048C080918A02863109F078C0B0
:100810008FE00E94AC0320917402892B29F02160A3
:1008200004C01092FA01EACF2E7F2093740208953B
:100830001092FA01089581110AC08FE00E94AC0362
:10084000892BB9F481E08093FA0110928A02809199
:10085000FA01813071F480918A028A3051F48FE07C
:100860000E94AC03892BC1F482E08093FA011092BC
:100870008A028091FA01823071F480918A02843177
:1008800039F2883261F08C33A9F08035F1F084368A
:1008900039F1883769F208951092FA01EACF8FE0B2
:1008A0000E94AC0320917402892B11F02260BDCF0D
:1008B0002D7FBBCF8FE00E94AC0320917402892B67
:1008C00011F02460B2CF2B7FB0CF8FE00E94AC0339
:1008D00020917402892B11F02860A7CF277FA5CF24
:1008E0008FE00E94AC0320917402892B39F02061C3
:1008F0002093740281E08093760208952F7EF8CFD2
:100900008C3269F28234B1F28835F9F28E3641F3D5
:10091000843809F48DCF08951F93CF93DF93282F48
:1009200030E0F901E551FA4F8491F901E150FA4FB5
:10093000D491F901E35EF94FC491CC23A9F0162FAD
:1009400081110E948303EC2FF0E0EE0FFF1FED5E9C
:10095000F94FA591B4918FB7F894EC91111108C09B
:10096000D095DE23DC938FBFDF91CF911F91089547
:10097000DE2BF8CFCF93DF9390E0FC01E150FA4FEC
:100980002491835E994FFC0184918823C9F090E003
:10099000880F991FFC01E952FA4FA591B491FC010F
:1009A000ED5EF94FC591D49161110DC09FB7F894D8
:1009B0008C91209582238C938881282328839FBF44
:1009C000DF91CF910895623051F49FB7F8943C9134
:1009D000822F809583238C93E8812E2BEFCF8FB7C6
:1009E000F894EC912E2B2C938FBFEACF3FB7F8945D
:1009F00080917E0290917F02A0918002B09181024D
:100A000026B5A89B05C02F3F19F00196A11DB11D69
:100A10003FBFBA2FA92F982F8827BC01CD01620FA5
:100A2000711D811D911D42E0660F771F881F991F60
:100A30004A95D1F708958F929F92AF92BF92CF922D
:100A4000DF92EF92FF924B015C010E94F6046B0172
:100A50007C010E94F6046C197D098E099F09683E8D
:100A6000734081059105A8F321E0821A9108A1083D
:100A7000B10888EEC80E83E0D81EE11CF11C811479
:100A80009104A104B10429F7FF90EF90DF90CF907B
:100A9000BF90AF909F908F900895AF92BF92CF92EA
:100AA000DF92EF92FF920F931F93CF93DF936C012E
:100AB0007B018B01040F151FEB015E01AE18BF080F
:100AC000C017D10759F06991D601ED91FC910190C1
:100AD000F081E02DC6010995892B79F7C501DF91D9
:100AE000CF911F910F91FF90EF90DF90CF90BF902B
:100AF000AF900895FC01538D448D252F30E0842F55
:100B000090E0821B930B541710F0CF960895019735
:100B10000895FC01918D828D981761F0A28DAE0F22
:100B2000BF2FB11D5D968C91928D9F5F9F73928FA9
:100B300090E008958FEF9FEF0895FC01918D828DD5
:100B4000981731F0828DE80FF11D858D90E00895A2
:100B50008FEF9FEF0895FC01918D228D892F90E0FA
:100B6000805C9F4F821B91098F73992708958BE8B2
:100B700092E00E94AB0521E0892B09F420E0822F4E
:100B8000089580E090E0892B29F00E94B70581113B
:100B90000C9400000895FC01A48DA80FB92FB11D7D
:100BA000A35ABF4F2C91848D90E001968F739927A3
:100BB000848FA689B7892C93A089B1898C91837081
:100BC00080648C93938D848D981306C00288F3897A
:100BD000E02D80818F7D80830895EF92FF920F93A7
:100BE0001F93CF93DF93EC0181E0888F9B8D8C8DD9
:100BF00098131AC0E889F989808185FF15C09FB7CD
:100C0000F894EE89FF896083E889F989808183708F
:100C1000806480839FBF81E090E0DF91CF911F913E
:100C20000F91FF90EF900895F62E0B8D10E00F5F5F
:100C30001F4F0F731127E02E8C8D8E110CC00FB635
:100C400007FCFACFE889F989808185FFF5CFCE01CD
:100C50000E94CB05F1CFEB8DEC0FFD2FF11DE35A78
:100C6000FF4FF0829FB7F8940B8FEA89FB89808150
:100C70008062CFCFCF93DF93EC01888D8823B9F0CA
:100C8000AA89BB89E889F9898C9185FD03C0808197
:100C900086FD0DC00FB607FCF7CF8C9185FFF2CF14
:100CA000808185FFEDCFCE010E94CB05E9CFDF919A
:100CB000CF91089510926E0210926F0210927002FE
:100CC0001092710210926D028091820290918302C3
:100CD0008093B200E0E7F0E0808181608083089536
:100CE00020912202260F3327331F21323105ECF4E5
:100CF00020914602FC0190E080E0243069F082E01F
:100D00000895A09122022191AC014E5F5D4FA40F86
:100D1000B52FB11D2C930196861798F3809122026E
:100D2000680F6093220280E0089581E0089508959D
:100D30008FEF9FEF08958FEF9FEF08958091FB0154
:100D400090E09195819591090895CF93DF93CB0120
:100D5000EA01642F0E947006CE01DF91CF910895C1
:100D6000CF93DF931F92CDB7DEB7698361E0CE01E9
:100D700001960E94700681E090E00F90DF91CF9184
:100D80000895FC01A5A1B6A18C9192A589238C930D
:100D9000A5A1B6A18C9191A5892B8C9308950F9351
:100DA0001F93CF93DF93EC018B018DA981110DC0AF
:100DB0001EBD0DB407FEFDCF0EBD0DB407FEFDCF69
:100DC000DF91CF911F910F9108958130E9F480E177
:100DD000E9A1FAA1908117FF14C02DA1922B908355
:100DE000EBA1FCA190812FA1922B9083EBA1FCA100
:100DF000908128A592239083000F111F815041F705
:100E0000DFCF2EA19223EBCFEF8DF8A11083CE017F
:100E10000E94C106EF8DF8A10083CE01DF91CF9132
:100E20001F910F910C94C106FC0185A9811105C089
:100E30006EBD0DB407FEFDCF08958130E1F488E06A
:100E4000A1A1B2A19C9167FF13C025A1922B9C93F5
:100E5000A3A1B4A19C9127A1922B9C93660FA3A15F
:100E6000B4A19C9120A592239C93815049F70895A9
:100E700026A19223ECCFA78DB0A16C93CF010C9447
:100E8000C106CF93DF93EC01ED8DFE8D80819CA98F
:100E900089238083CE010E941407ED8DFE8D808111
:100EA0009BA9892B8083DF91CF910895AF92BF9248
:100EB000CF92DF92EF92FF920F931F93CF93DF9326
:100EC000EC015B016A01215031097901E60EF71E40
:100ED00001501109040F151F80910601909107011F
:100EE0008617970739F480910401909105018E15BA
:100EF0009F05A1F06AE2CE010E944107B501CE0133
:100F00000E94CF06B701CE010E94CF06B092070122
:100F1000A0920601F0920501E09204018091020185
:100F2000909103018C159D0539F4809100019091F9
:100F3000010180179107A1F06BE2CE010E944107E9
:100F4000B601CE010E94CF06B801CE010E94CF06A5
:100F5000D0920301C092020110930101009300019D
:100F60006CE2CE01DF91CF911F910F91FF90EF9036
:100F7000DF90CF90BF90AF900C944107FC0185A902
:100F8000811104C091A182A19CBD8DBD08951F93C4
:100F9000CF93DF93EC01162FE881F9810284F3856A
:100FA000E02D0995112371F06DADCE010E9441072E
:100FB000E881F9810688F789E02DCE01DF91CF9194
:100FC0001F9109946EADF1CFAF92BF92CF92DF9295
:100FD000EF92FF920F931F93CF93DF93EC0177FD76
:100FE00038C088859985681779079CF557FD31C009
:100FF0008A859B854817590764F569017A015B0169
:10100000E881F9810284F385E02DCE010995E8811C
:10101000F98102A4F3A5E02D01E010E021E030E029
:10102000A701B501CE010995B601CE010E94CF06F8
:10103000E881F9810688F789E02DCE01DF91CF9113
:101040001F910F91FF90EF90DF90CF90BF90AF90E6
:101050000994DF91CF911F910F91FF90EF90DF9056
:10106000CF90BF90AF9008958F929F92AF92BF9212
:10107000CF92DF92EF92FF920F931F93CF93DF9364
:10108000EC0149015701E881F98102A4F3A5E02DA3
:1010900009959401D8010E94171B6B017C01C114B2
:1010A000D104E104F10409F490C08DA9811115C0A7
:1010B00081E0C81AD108E108F1088FEFC816D806F8
:1010C000E806F80609F481C0BEBC0DB407FEFDCFEA
:1010D000AEBC0DB407FEFDCFEBCF813009F045C0AB
:1010E00081E0C81AD108E108F1088FEFC816D806C8
:1010F000E806F80609F469C09B2D88E0E9A1FAA189
:10110000208197FF2CC03DA1232B2083EBA1FCA1C4
:1011100020813FA1232B2083EBA1FCA1208138A5B6
:1011200023232083990F815049F79A2D88E0E9A164
:10113000FAA1208197FF16C03DA1232B2083EBA1AC
:10114000FCA120813FA1232B2083EBA1FCA12081C6
:1011500038A523232083990F815049F7C1CF3EA1A1
:101160002323D3CF3EA12323E9CFBA1016C0CC0C42
:10117000DD1CEE1CFF1CEF8DF8A1B08281E0C81AC7
:10118000D108E108F1088FEFC816D806E806F8067E
:10119000E1F0CE010E94C106F1CF81E0C81AD1086A
:1011A000E108F1088FEFC816D806E806F80669F0DE
:1011B000EF8DF8A1B082CE010E94C106EF8DF8A19B
:1011C000A082CE010E94C106E8CFDF91CF911F918E
:1011D0000F91FF90EF90DF90CF90BF90AF909F90D6
:1011E0008F9008958F929F92AF92BF92CF92DF928D
:1011F000EF92FF920F931F93CF93DF934C01EB017C
:101200006A01590137FF07C0C9010196C80FD91FEC
:10121000B194A194B108F401A085B185CA17DB0788
:101220000CF058C017FF07C0C8010196C80ED91EA0
:10123000119501951109F40182859385C816D90687
:101240000CF048C0FE01EA0DFB1DAF0141505109F1
:1012500057FD40C0B601600F711F9B01215031093D
:1012600037FD38C0D7FF03C05F01D0E0C0E0D7FE34
:1012700003C08B01D12CC12C4A175B071CF05D0108
:10128000AC1ABD0A281739071CF08C010C191D096E
:10129000D401ED91FC910284F385E02DC401099500
:1012A0009501A601BE01C4010E943408D401ED914C
:1012B000FC910688F789E02DC401DF91CF911F9141
:1012C0000F91FF90EF90DF90CF90BF90AF909F90E5
:1012D0008F900994DF91CF911F910F91FF90EF9024
:1012E000DF90CF90BF90AF909F908F900895EF9236
:1012F000FF920F931F932115310529F00115110558
:1013000011F00E94F2081F910F91FF90EF90089545
:101310008F929F92AF92BF92CF92DF92EF92FF9205
:101320000F931F93CF93DF935C014B016A01E90197
:1013300077FD52C0DC0118968D919C916817790752
:101340000CF04AC0209709F447C037FF07C0C90115
:101350000196C80ED91ED195C195D109F501828596
:101360009385C816D906C4F5A6014C0F5D1F9A01D6
:101370002150310937FD30C0D7FE03C0EA01D12C1E
:10138000C12C281739071CF0EC01CC19DD09D50157
:10139000ED91FC910284F385E02DC501099578015A
:1013A0008E0121E030E0A601B401C5010E9434089D
:1013B000D501ED91FC910688F789E02DC501DF91FB
:1013C000CF911F910F91FF90EF90DF90CF90BF9042
:1013D000AF909F908F900994DF91CF911F910F91C3
:1013E000FF90EF90DF90CF90BF90AF909F908F9045
:1013F00008958F929F92AF92BF92CF92DF92EF9219
:10140000FF920F931F93CF93DF935C016B014A010F
:10141000E90157FD52C0DC011A968D919C91481745
:1014200059070CF04AC0209709F447C037FF07C09E
:10143000C9010196C80ED91ED195C195D109F501F2
:1014400080859185C816D906C4F5A6014C0F5D1F8D
:101450009A012150310937FD30C0D7FE03C0EA019F
:10146000D12CC12C281739071CF0EC01CC19DD094F
:10147000D501ED91FC910284F385E02DC50109951C
:10148000780101E010E09E01A401B601C5010E94AF
:101490003408D501ED91FC910688F789E02DC5014E
:1014A000DF91CF911F910F91FF90EF90DF90CF9040
:1014B000BF90AF909F908F900994DF91CF911F9133
:1014C0000F91FF90EF90DF90CF90BF90AF909F90E3
:1014D0008F900895EF92FF920F931F93CF93DF9316
:1014E00077FD32C0DC011896ED91FC916E177F07F5
:1014F0005CF52115310541F137FF07C0F90131963F
:101500004E0F5F1F319521953109DC011A96ED913F
:10151000FC914E175F07C4F4EA01C20FD31FDE012E
:101520001197B7FD11C057FF03C09E0150E040E086
:10153000AE17BF071CF09F01241B350B78018901F2
:1015400021E030E00E943408DF91CF911F910F918C
:10155000FF90EF900895EF92FF920F931F93CF9318
:10156000DF9357FD31C0DC011A96ED91FC914E17C7
:101570005F0754F52115310539F137FF07C0F9012F
:1015800031966E0F7F1F319521953109DC01189638
:10159000ED91FC916E177F07BCF4EB01C20FD31FD6
:1015A000DE011197B7FD10C077FF03C09E0170E008
:1015B00060E0AE17BF071CF09F01261B370B7801B8
:1015C00001E010E00E943408DF91CF911F910F914C
:1015D000FF90EF9008958F929F92AF92BF92CF921B
:1015E000DF92EF92FF920F931F93CF93DF93470108
:1015F0002115310509F44BC00115110509F447C047
:1016000037FF07C0F90131966E0F7F1F3195219585
:101610003109DC011896AD90BC906A157B05BCF5CC
:1016200017FF07C0F80131964E0F5F1F1195019506
:101630001109DC011A96ED91FC914E175F073CF5FC
:101640006B01C20ED31EE6012197D7FD20C07A019F
:10165000E00EF11ED7011197B7FD19C077FF03C047
:10166000960170E060E057FF03C0870150E040E062
:10167000CA15DB051CF09501261B370BAE17BF07FB
:101680001CF08F01041B150B74010E943408DF91BC
:10169000CF911F910F91FF90EF90DF90CF90BF906F
:1016A000AF909F908F900895EF92FF920F931F93AA
:1016B000CF93DF93EC0177FD22C088859985681769
:1016C0007907ECF457FD1BC08A859B85481759079D
:1016D000B4F47901E881F98102A4F3A5E02D01E0D9
:1016E00010E021E030E0CE010995B701CE01DF9195
:1016F000CF911F910F91FF90EF900C94CF06DF9147
:10170000CF911F910F91FF90EF900895CF93DF93AA
:10171000EC010E94BE078FA987FD06C0EB8DFC8DF2
:1017200080819AA989238083DF91CF9108950895BC
:10173000AF92BF92CF92DF92EF92FF920F931F93DF
:10174000CF93DF93EC01E62E8A01A22E0E94BE0702
:101750008FA987FD06C0EB8DFC8D80819AA9892316
:101760008083ED8DFE8D80819CA9892380836E2DE1
:10177000CE010E941407ED8DFE8D80819BA9892BDF
:101780008083D12CC12CB12CCA14DB04E4F48DA9C4
:101790007801823079F488A9882361F0F801619199
:1017A00071917F01CE010E94CF06FFEFCF1ADF0AB1
:1017B0008701EACFFFEFEF1AFF0AF8016491CE012B
:1017C0000E941407F2CF8FA987FD06C0EB8DFC8D18
:1017D000808199A9892B8083DF91CF911F910F91EF
:1017E000FF90EF90DF90CF90BF90AF900895611180
:1017F00006C060E220E050E040E00C94980B61E20B
:10180000F9CF0F931F93CF93DF931F92CDB7DEB71E
:101810008C016370DC0156966C935697623009F424
:1018200068C0633009F46AC0613009F456C088E4C6
:10183000898380EF90E019969C938E93189780E4AB
:1018400091E01B969C938E931A97C8010E94BE0745
:10185000D801D7968C91D79787FD09C05B96ED91FB
:10186000FC915C978081D2969C9189238083D801DA
:101870005D96ED91FC915E978081D4969C91892331
:10188000808366E3C8010E941407D8015D96ED913C
:10189000FC915E978081D3969C91D397892B80830E
:1018A000D5968C91823061F16981C8010E9414073C
:1018B000D801D7968C91D79787FD09C05B96ED919B
:1018C000FC915C978081D1969C91892B80830F90AD
:1018D000DF91CF911F910F91089588E2898380E471
:1018E00091E0F8019187808780EF90E0938782876D
:1018F000ACCF88E8898380EF90E09DCF88EEEECF73
:10190000F80180A9882381F269817A81C8010E9447
:10191000CF06CECFFC0187A987FD06C0A38DB48D6D
:101920009C9181A9892B8C9308950895FC01637083
:10193000668B8481958126813781613039F06330EF
:1019400029F0918780873387228708953187208700
:101950009387828708952F923F924F925F926F9262
:101960007F928F929F92AF92BF92CF92DF92EF922F
:10197000FF920F931F93CF93DF93CDB7DEB76A9794
:101980000FB6F894DEBF0FBECDBF9A8F898F7A83D2
:1019900069834A01D22E18870F833701BC2CDC01E2
:1019A00059962D913C915A972115310509F015C191
:1019B00018968D919C911997681779070CF0D7C1EB
:1019C0001A968D919C91481759070CF0D0C14C2C58
:1019D000512CB6E0CB9E600D711D11247C876B8766
:1019E000161617060CF0C3C1EA2DF0E0FA87E98756
:1019F00093E0EE0FFF1F9A95E1F7F88BEF87CF0189
:101A0000840F951F181619060CF0B1C1A98DBA8D57
:101A100058968C91811104C0BFEABD1508F4D39487
:101A2000A98DBA8DED91FC9111970284F385E02D7B
:101A3000CD010995B5E0DB9EC0011124E981FA8151
:101A4000FC83EB83312C212C9C0128593F4F388F8C
:101A50002F8B4A2D50E05E8B4D8BEF89F88DE20D78
:101A6000F31D44919E828D82D12CC12C69817A8193
:101A7000620D731D7A8B698B842F90E09C8B8B8B0E
:101A8000E98DFA8DA081B18140FF82C0F1E0BF12E3
:101A90006FC0AF126DC01C96ED91FC912F813885FF
:101AA000A4014C0D5D1D69897A89898D9A8D0995EE
:101AB000EB89FC89F595E7954E2F5FEFC51AD50A9E
:101AC0006D817E818D899E89680F791F7E836D83EC
:101AD00098E0C916D10481F6AFEF2A1A3A0AEB81D1
:101AE000FC81E40DF51DFC83EB83F5E02F1631043A
:101AF00009F0B3CF2F81388526153705B9F0A98DA8
:101B0000BA8DED91FC91B1E0BB1257C0AB1255C03C
:101B100069817A816B5F7F4F0088F189E02D8301B5
:101B200028E030E0A401898D9A8D0995A98DBA8DA0
:101B3000ED91FC9111970688F789E02DCD016A9609
:101B40000FB6F894DEBF0FBECDBFDF91CF911F91CE
:101B50000F91FF90EF90DF90CF90BF90AF909F904C
:101B60008F907F906F905F904F903F902F9009944F
:101B70001E96ED91FC91EF80F88409851A859201FB
:101B80004D815E816B817C81898D9A8D099590CF85
:101B90002F8138852615370509F48ACF31E0B31235
:101BA00007C0A31205C01C96ED91FC91930178CF5C
:101BB0001E96ED91FC917301E0CF6B857C856419D5
:101BC00075090684F785E02D73010F851889920148
:101BD000A401898D9A8D0995A9CFF9013496949124
:101BE000329745915491D91AB7E0DB9E400D511DB3
:101BF0001124F901259134913C8B2B8BFA0125900E
:101C00003490FA013296749031963491398B329631
:101C100064903196449041E04C1518F04A1508F054
:101C20007FC0662D062C000C770B7C836B83842D84
:101C3000042C000C990B9E838D83A98DBA8DED9198
:101C4000FC9111970284F385E02DCD010995512C6B
:101C5000D12CC12CEA2DF0E0FA87E9872B2D30E05A
:101C60003C872B87A401440D511D47FC5A95588F82
:101C70004F8B69817A81660D711D67FC7A957E872D
:101C80006D877989C71608F051CF2C2D30E04D8132
:101C90005E81420F531FA985BA854A9FC0014B9FA1
:101CA000900D5A9F900D1124FC01E80DF91DF88B41
:101CB000EF87852D612C4F89588D420F531F5E8B06
:101CC0004D8B671408F050C044244394480E87702D
:101CD00041F4C1010196EB89FC89E20DF31DD4901A
:101CE0001C01D7FE19C0A98DBA8DED91FC91662D0E
:101CF00070E0B1E0BB1219C0AB1217C02D853E8554
:101D0000620F731F0484F585E02D2F8138854D897E
:101D10005E89898D9A8D0995DD0C6394842DD1CFD0
:101D20001E821D821C821B8288CF4B815C81640FC6
:101D3000751FAB85BC856A9FC0016B9F900D7A9F14
:101D4000900D112469817A81680F791F0684F785C7
:101D5000E02DEF80F88409851A859D014F8558890B
:101D6000898D9A8D0995D8CF570CC3948ACF6A96DE
:101D70000FB6F894DEBF0FBECDBFDF91CF911F919C
:101D80000F91FF90EF90DF90CF90BF90AF909F901A
:101D90008F907F906F905F904F903F902F9008951D
:101DA0008F929F92AF92CF92EF92FF920F931F93D9
:101DB000CF93DF93EC01262F898D9A8D009709F040
:101DC00051C06A30D1F41D861C868D8948E0849FFD
:101DD000900111248E859F85820F931F9F878E8788
:101DE00081E090E0DF91CF911F910F91FF90EF90F4
:101DF000CF90AF909F908F9008956D3089F3CC88ED
:101E0000AD888F898823C1F08C859D8536E0C39E7F
:101E1000800D911D1124488559854817590764F490
:101E20004E855F851D861C8638E0A39EC001112467
:101E3000840F951F9F878E87EA88FB8808891989F8
:101E40004E855F856C857D85CE010E94AB0C2C890B
:101E50008C859D8546E0249F800D911D11249D87D2
:101E60008C87BECF6A3069F41D861C86FC013896CB
:101E7000E4912D898E859F85E29F800D911D11240F
:101E8000ADCF6D3009F4ACCFFC01349634916317BB
:101E900008F4A6CF3296E491E61708F4A1CFFC012E
:101EA000329685909490462F431B342F47E0349F01
:101EB000800C911C1124F401329634913196E491F6
:101EC0003323A9F1EE2399F1CC88F4013596E491FE
:101ED000AD884F89442301F10E2E000CFF0BE30F58
:101EE000F11DCE9EA001CF9E500D11246C857D85E5
:101EF000460F571F68857985641775076CF44E8502
:101F00005F851D861C86FC013896E491AE9E400DCF
:101F1000511D11245F874E87EA88FB88088919893B
:101F20004E855F856C857D85CE010E94AB0CF401EA
:101F30003496E4912C898C859D85E29F800D911DBE
:101F400011248DCF6F927F928F929F92AF92BF920A
:101F5000CF92DF92EF92FF920F931F93CF93DF9375
:101F6000EC016B015A0139014801E881F9810284D1
:101F7000F385E02D0995E881F9810288F389E02D48
:101F800087019301A501B601CE010995A501480D70
:101F9000591D41505109E881F9810288F389E02DEA
:101FA0009301B601CE010995E881F9810088F18994
:101FB000E02D9401A501B601CE010995C60CD71CF0
:101FC000B60161507109E881F9810088F189E02D3D
:101FD0009401A501CE010995E881F9810688F78968
:101FE000E02DCE01DF91CF911F910F91FF90EF90E7
:101FF000DF90CF90BF90AF909F908F907F906F9029
:1020000009946F927F928F929F92AF92BF92CF92DC
:10201000DF92EF92FF920F931F93CF93DF935C01B8
:10202000EB016A01490138018701DC01ED91FC9166
:102030006217730719F5641675062CF0962D872D17
:102040003A01C92ED82E9601261937092F5F3F4F26
:10205000048CF58DE02DA301BE01C5010995DF912A
:10206000CF911F910F91FF90EF90DF90CF90BF9095
:10207000AF909F908F907F906F9008954615570571
:1020800091F42617370724F0892D4B01C22FD82F42
:102090009E01281939092F5F3F4F068CF78DE02DDF
:1020A000A601B401DACF0284F385E02D0995D501AC
:1020B000ED91FC910488F589E02D83019401A6013E
:1020C000BE01C5010995D501ED91FC910688F789FE
:1020D000E02DC501DF91CF911F910F91FF90EF90FF
:1020E000DF90CF90BF90AF909F908F907F906F9038
:1020F0000994EF92FF920F931F93DC011A960D91B2
:102100001C911B9718962D913C911997ED91FC917C
:1021100000A0F1A1E02D7B0150E040E070E060E024
:1021200009951F910F91FF90EF9008954F925F9244
:102130006F927F928F929F92AF92BF92CF92DF92D7
:10214000EF92FF920F931F93CF93DF936C012B01BC
:102150005A0139014801DC01ED91FC910284F385BB
:10216000E02D0995E201640C751CD601ED91FC91FE
:10217000C615D7055CF40088F189E02D870194012C
:10218000A501BE01C60109952196EFCF0688F78902
:10219000E02DC601DF91CF911F910F91FF90EF903D
:1021A000DF90CF90BF90AF909F908F907F906F9077
:1021B0005F904F9009948F929F92AF92BF92CF926F
:1021C000DF92EF92FF920F931F93CF93DF93EC0177
:1021D0005B014A016901E881F9810284F385E02D00
:1021E000099595012C0D3D1D21503109E881F9819A
:1021F0000488F589E02D78018401A401B501CE01A0
:102200000995E881F9810688F789E02DCE01DF91F3
:10221000CF911F910F91FF90EF90DF90CF90BF90E3
:10222000AF909F908F9009948F929F92AF92BF92A0
:10223000CF92DF92EF92FF920F931F93CF93DF9392
:10224000EC015B014A0169017801E881F9810284AE
:10225000F385E02D0995C80CD91C860101501109A0
:10226000E881F9810488F589E02D9501A401B50183
:10227000CE010995E881F9810688F789E02DCE0124
:10228000DF91CF911F910F91FF90EF90DF90CF9052
:10229000BF90AF909F908F900994EF92FF920F9311
:1022A0001F93DC01ED91FC9100A0F1A1E02D0995B7
:1022B0001F910F91FF90EF9008950F931F93DC01F2
:1022C000ED91FC91068CF78DE02D09951F910F91F2
:1022D00008950F931F93DC01ED91FC91048CF58D13
:1022E000E02D09951F910F910895DC01ED91FC916E
:1022F0000084F185E02D09942F923F924F925F92D6
:102300006F927F928F929F92AF92BF92CF92DF9205
:10231000EF92FF920F931F93CF93DF9300D000D0E3
:1023200000D0CDB7DEB73C016A013E832D83FC822D
:10233000EB825801A41AB50AB7FE03C0B194A19468
:10234000B1088D809E80861A970A97FE03C09194EB
:10235000819491088A149B045CF0902F812F0D8149
:102360001E819D838E839C2D8D2D6B01692F782F6F
:102370000C151D055CF09D818E817E836D83692F18
:10238000782F902F812F8601C92ED82E1601201A62
:10239000310A2B012D813E81421A530A57FE03C098
:1023A000519441945108710137FE03C03FEFE31A85
:1023B000F30AF594E7948D819E81861797075CF563
:1023C000A1E0B0E0BA83A983C016D1064CF1D301D5
:1023D000ED91FC910484F585E02D2B813C81A801D1
:1023E0006D817E818A149B041CF04D815E81B80151
:1023F000C3010995E418F508F7FE0AC02D813E8156
:1024000089819A81280F391F3E832D83E20CF31CAA
:102410000F5F1F4FD9CF2FEF3FEF3A832983D4CFE0
:1024200026960FB6F894DEBF0FBECDBFDF91CF91D9
:102430001F910F91FF90EF90DF90CF90BF90AF90E2
:102440009F908F907F906F905F904F903F902F90D4
:102450000895089590E080E008950E943B1BFB01E1
:1024600001900020E9F73197AF01461B570BDC01C3
:10247000ED91FC910280F381E02D0994BC0186E38B
:1024800093E00C942F12EF92FF920F931F93CF9330
:10249000DF9360E078EF86E393E00E947910C6E373
:1024A000D3E00FEF1FEF1B8B0A8B198B088B82E099
:1024B0008C8B8D8B8EE1E82EF12CFD86EC868AE0EC
:1024C00090E09F878E878EE491E00E943E1284E127
:1024D00090E09D878C87FF86EE8685E691E00E94DE
:1024E0003E1281E08C8B8D8B198B088B1B8A1A8A8C
:1024F00082E090E09D878C8788EE90E09F878E87B2
:102500008CE791E0DF91CF911F910F91FF90EF90B9
:102510000C943E12CF92DF92EF92FF920F931F9393
:10252000CF93DF93EC016A017B01C114D104E10474
:10253000F10431F4C12C42E1D42E4AE7E42EF12C0F
:102540008FA987FD07C061E00E94BA0461E08FA9EE
:102550000E948C0461E088AD0E94BA0461E088ADFD
:102560000E948C048DA98111A3C040E052E16AE76A
:1025700070E0C416D506E606F70640F47695679532
:10258000579547958F5F8630A1F787E0982F906A1F
:10259000969599A3809581708AA31BA21CA21DA267
:1025A0001EA21FB7F89480916C02811127C0E7E248
:1025B000F6E08491E9E0F6E09491E82FF0E0EE0F88
:1025C000FF1FE952FA4FA591B491EC91E92321F450
:1025D00061E08AE00E948C0461E08AE00E94BA0413
:1025E0008CB580618CBD8CB580648CBD61E08DE064
:1025F0000E94BA0461E08BE00E94BA0480916C02F0
:102600008F5F80936C021FBF8EA987FD21C061E0A0
:102610000E94BA0461E08EA90E948C0464E670E016
:1026200080E090E00E941B0560E08EA90E948C046F
:1026300064E670E080E090E00E941B0561E08EA9F6
:102640000E948C0468EC70E080E090E00E941B0522
:102650008EA987FF0DC020E050E040E061E0CE0190
:102660000E94980B66E970E080E090E00E941B05F4
:1026700008E615E0C8010196F8016491662309F4A3
:1026800063C00E5F1F4FFC01F490EF2CE894E7F855
:102690002E2DA801CE010E94980B0E0D111DF7FEE4
:1026A000E9CF66E970E080E090E00E941B05E2CF90
:1026B0000DE116E0F12C8130B9F461E08AA50E94A9
:1026C000BA0460E08AA50E948C0461E08CA50E9497
:1026D000BA0460E08CA50E948C048BA587FD94CF82
:1026E00060E00E94BA0490CFF8018491E82FF0E0F6
:1026F000EE0FFF1FED5EF94F859194912F8D38A15C
:102700002817390741F461E08F2D0E94BA0460E078
:102710008F2D0E948C04F3940F5F1F4FF4E1FF1282
:10272000E3CF61E08EA50E94BA0461E08EA50E940D
:102730008C048FA587FD68CF61E00E94BA0461E038
:102740008FA50E948C0460CF80EF90E099878887E6
:1027500080E491E09B878A87DF91CF911F910F9151
:10276000FF90EF90DF90CF9008951F93CF93DF936A
:1027700085ED8093BC008091FE019091FF01A091B6
:102780000002B09101020796A11DB11D23E0B6958C
:10279000A795979587952A95D1F72091BC0024FDA0
:1027A00003C01092460252C04091FE015091FF01B9
:1027B0006091000270910102452B462B472B69F373
:1027C0000097A105B10541F02AE22A95F1F700C072
:1027D0000197A109B109E1CF8091FD01C1E0C0934A
:1027E000FC01882399F1D091B8001091BA00809132
:1027F000BC008A7B8093BC0060E082E10E948C0474
:1028000060E083E10E948C0410924602C09348026B
:102810001092470261E082E10E948C0461E083E152
:102820000E948C048091B9008E7F8093B9008091C2
:10283000B9008D7F8093B90088E48093B80085E467
:102840008093BC001093BA00D093B800DF91CF9171
:102850001F9108951F920F920FB60F9211242F937C
:102860003F938F939F93AF93BF9380912803909151
:102870002903A0912A03B0912B0330917D0223E01C
:10288000230F2D3758F50196A11DB11D20937D0210
:102890008093280390932903A0932A03B0932B03DA
:1028A00080917E0290917F02A0918002B09181027E
:1028B0000196A11DB11D80937E0290937F02A0938B
:1028C0008002B0938102BF91AF919F918F913F9110
:1028D0002F910F900FBE0F901F90189526E8230F91
:1028E0000296A11DB11DD2CF1F920F920FB60F926B
:1028F00011242F933F934F935F936F937F938F9305
:102900009F93AF93BF93EF93FF938BE892E00E9466
:10291000CB05FF91EF91BF91AF919F918F917F91E7
:102920006F915F914F913F912F910F900FBE0F903C
:102930001F9018951F920F920FB60F9211242F938C
:102940008F939F93EF93FF93E0919B02F0919C02F2
:102950008081E091A102F091A20282FD1BC09081D2
:102960008091A4028F5F8F732091A502821741F09E
:10297000E091A402F0E0E557FD4F958F8093A4020B
:10298000FF91EF919F918F912F910F900FBE0F901C
:102990001F9018958081F4CF1F920F920FB60F925F
:1029A00011242F933F934F935F936F937F938F9354
:1029B0009F93AF93BF93EF93FF9380918202909187
:1029C00083028093B20080916E0290916F02A09179
:1029D0007002B09171020196A11DB11D80936E022B
:1029E00090936F02A0937002B093710280916E0277
:1029F00090916F02A0917002B09171024091860295
:102A0000509187026091880270918902841795071E
:102A1000A607B70710F180916D0281111EC081E0F9
:102A200080936D0280916E0290916F02A09170026E
:102A3000B0917102841B950BA60BB70B80936E02AD
:102A400090936F02A0937002B0937102E0918402A0
:102A5000F0918502099510926D02FF91EF91BF915F
:102A6000AF919F918F917F916F915F914F913F9126
:102A70002F910F900FBE0F901F9018951F920F92DD
:102A80000FB60F9211242F933F934F935F936F9341
:102A90007F938F939F93AF93BF93EF93FF93809117
:102AA000B900887F803609F44AC0F0F5883209F40D
:102AB000A5C018F5803109F499C0B8F4882309F449
:102AC000F5C0883009F492C0FF91EF91BF91AF91AA
:102AD0009F918F917F916F915F914F913F912F9136
:102AE0000F900FBE0F901F901895883109F486C083
:102AF000803251F78093450214C0803409F49BC0A2
:102B000040F48033B9F38833F9F68093450285ECBD
:102B1000AEC0803509F483C0883509F494C0883488
:102B200099F60E94B513D0CF883909F48AC038F5D8
:102B3000883729F050F4883611F0803729F683E081
:102B4000809346021092440255C0883809F479C037
:102B5000803919F0803809F0B7CF80914402803273
:102B600008F06FC0E091440281E08E0F8093440230
:102B70008091BB00F0E0EC5DFD4F80833BC0803B6B
:102B800039F0D0F4803A09F477C0883A09F09CCF44
:102B900084E0809346021092230210922202F0E019
:102BA000E0E009958091220281110FC081E08093BD
:102BB00022021092020209C0803C09F4A8CF883C8E
:102BC00009F4A5CF883B09F07FCFE091230281E093
:102BD0008E0F80932302F0E0EE5FFD4F80818093A3
:102BE000BB00909123028091220229C080916B0248
:102BF0008093BB0085EC8093BC0066CF90916A0205
:102C000080916902981758F5E0916A0281E08E0F71
:102C100080936A02F0E0E75BFD4F8081E9CFE091AD
:102C20006A0281E08E0F80936A028091BB00F0E01F
:102C3000E75BFD4F808390916A028091690298174B
:102C4000C8F285E8D8CFE0916A0281E08E0F8093C8
:102C50006A028091BB00F0E0E75BFD4F80838091CA
:102C6000480281115ECF81E08093470284EA80931D
:102C7000BC001092460228CF85EC8093BC001092D5
:102C8000460280914402803230F4E0914402F0E048
:102C9000EC5DFD4F10826091440270E084E292E0AE
:102CA000F0E0E0E00995109244020ECF1092450248
:102CB00038CFEBE8F2E01382128288EE93E0A0E0D6
:102CC000B0E084839583A683B78380E191E091830C
:102CD000808385EC90E09587848784EC90E09787EB
:102CE000868780EC90E0918B808B81EC90E0938BD9
:102CF000828B82EC90E0958B848B86EC90E0978BB6
:102D0000868B118E128E138E148EA6E3B3E013966B
:102D10001C921E92129720EF30E015963C932E9352
:102D2000149780E491E017969C938E9316971996CA
:102D30003C932E9318971B969C938E931A975696B6
:102D40001C9256971D961C921E921C971F961C92C1
:102D50001E921E9781E055968C93559754968C93AE
:102D600054972FEF3FEF53963C932E9352975196E3
:102D70003C932E93509757968C93579758961C9246
:102D800058975A961C921E925997D5961C92D59791
:102D90008FEFD6968C93D6978AE0D7968C93D79759
:102DA00089E0D8968C93D897DA961C921E92D99780
:102DB000DC961C921E92DB97DD961C92DD97DE96C8
:102DC0001C92DE971092750310927603109277038F
:102DD000109278038CE293E090969C938E935F9789
:102DE000E6E2F6E0E491F0E0EE0FFF1FED5EF94F52
:102DF000859194915E969C938E935D97E8E0F6E0C2
:102E00008491D3968C93D397E7E2F6E0E491F0E0D7
:102E1000EE0FFF1FED5EF94F259134915C963C93C8
:102E20002E935B97E9E0F6E0E491D196EC93D1978D
:102E3000E095D296EC93D297E82FE095D496EC9358
:102E4000D49782E291E08D939C93EDE2F3E01082BF
:102E500084E190E0A0E0B0E085839683A783B0870B
:102E60002FB7F8948091280390912903A0912A0309
:102E7000B0912B032FBF81839283A383B4830895E2
:102E8000789484B5826084BD84B5816084BD85B545
:102E9000826085BD85B5816085BD80916E00816051
:102EA00080936E00109281008091810082608093F7
:102EB00081008091810081608093810080918000F9
:102EC0008160809380008091B10084608093B10024
:102ED0008091B00081608093B00080917A0084601E
:102EE00080937A0080917A00826080937A0080914A
:102EF0007A00816080937A0080917A008068809364
:102F00007A001092C100E0919B02F0919C0282E055
:102F10008083E0919702F09198021082E0919902EB
:102F2000F0919A028FEC80831092A302E0919F02AD
:102F3000F091A00286E08083E0919D02F0919E02D4
:102F4000808180618083E0919D02F0919E0280816A
:102F500088608083E0919D02F0919E02808180686C
:102F60008083E0919D02F0919E0280818F7D80831D
:102F700062E080E10E94BA0462E082E10E94BA0449
:102F800040E050E0BA0186E393E00E948A1263E0D9
:102F900086E393E00E94010C60E078EF86E393E023
:102FA0000E9479100E9444030E945A0680910801F1
:102FB0009091090120910A0130910B013093430354
:102FC0002093420390934503809344030E9443124D
:102FD0007724739466246394E2E3AE2EB12C78E2F6
:102FE000C72ED12CCFEFDFEF56E3552E60E0862EB3
:102FF00060E0962E80E10E94AC037C01442443945F
:10300000892B09F4412C40927C0282E10E94AC039E
:103010008C0181E00115110509F480E080937B02A9
:10302000EF2879F480917A02882359F0809179020F
:1030300087258093790268EC70E080E090E00E9440
:103040001B0540927A02012B09F041C08091780261
:103050008823E9F1809177028725809377020E9487
:1030600044030E945A064FE1E42EF12C04E110E0E3
:103070002CE231E04EE150E06AE070E086E393E05C
:103080000E94F208D0924303C09242038EE190E086
:103090009093450380934403D0934903C09348031E
:1030A000D0934703C093460382E080934A03809302
:1030B0004B0380917702811181C08AEA91E00E94DE
:1030C0003E1268EC70E080E090E00E941B05809169
:1030D0007B028093780280917902882309F495C25B
:1030E00060E078EF86E393E00E947910D093490383
:1030F000C0934803D0934703C093460382E0809374
:103100004A0380934B030EE110E0109343030093B6
:1031100042038AE090E090934503809344038EE459
:1031200091E00E943E12D0924303C092420310935A
:1031300045030093440380917702811142C08AEADB
:1031400091E00E943E1292E0492E27E3322E35E3B1
:10315000232E80E10E94AC037C0111E0892B09F44D
:1031600010E010937C0282E10E94AC0321E0009702
:1031700009F420E020937B02EF2831F520917A02B8
:10318000222311F11092790268EC70E080E090E067
:103190000E941B0560E078EF86E393E00E947910BF
:1031A0000E9443128114910409F424CF0E94B705B0
:1031B000882309F417CF0E94000011CF8EE991E017
:1031C0007ECF8EE991E0BDCF10937A02892B09F072
:1031D00040C0809178028823E1F1809177028725B1
:1031E000809377020E9444030E945A068FE1E82EE2
:1031F000F12C04E110E02CE231E04EE150E06AE015
:1032000070E086E393E00E94F208D0924303C092FC
:1032100042038EE190E09093450380934403D09362
:103220004903C0934803D0934703C0934603409299
:103230004A0340924B0380917702811140C08AEA91
:1032400091E00E943E1268EC70E080E090E00E9405
:103250001B0580917B0280937802809176028823FF
:1032600009F110927502809174028F3159F5109214
:103270007302909173029111D5C1833089F581E475
:103280008093750260917502662351F080917202FD
:10329000882309F4E8C06D3019F0603209F03CC1B0
:1032A0001092760263EC71E08BE892E00E942F129C
:1032B0006DED71E08BE892E00E942F124ACF8EE90B
:1032C00091E0BFCF8B3119F460927302D2CF9DE0B1
:1032D000883019F0843069F690E290937502C9CF76
:1032E000893111F482E4CCCF8E3011F483E4C8CF5D
:1032F000893011F484E4C4CF813011F485E4C0CF67
:103300008D3011F486E4BCCF8A3111F487E4B8CF54
:10331000843111F488E4B4CF863011F489E4B0CF5D
:103320008B3011F48AE4ACCF8F3011F48BE4A8CF4A
:10333000823111F48CE4A4CF8C3111F48DE4A0CF50
:103340008C3011F48EE49CCF883111F48FE498CF47
:10335000863111F480E594CF873111F481E590CF67
:103360008A3011F482E58CCF853011F483E588CF63
:10337000803111F484E584CF873011F485E580CF66
:103380008E3111F486E57CCF833111F487E578CF57
:103390008D3111F488E574CF853111F489E570CF52
:1033A000813109F06FCF8AE56BCF893111F48FE35A
:1033B00067CF8E3011F48AE363CF893011F484E251
:1033C0005FCF813011F483E35BCF8D3011F480E463
:1033D00057CF8A3111F481E253CF843111F486E260
:1033E0004FCF863011F488E34BCF8B3011F483E25A
:1033F00047CF8F3011F488E243CF823111F489E254
:103400003FCF8C3111F48EE23BCF8C3011F48CE243
:1034100037CF883111F489E333CF863111F480E35B
:103420002FCF873111F481E32BCF8A3011F484E35D
:1034300027CF803119F42092750224CF873019F4F8
:10344000309275021FCF833121F422E3209375025D
:1034500019CF8D3111F48FE213CF853109F012CFDE
:10346000509275020FCF6D3009F056C084E190E0A4
:1034700090930B0180930A018091080190910901BA
:1034800048969093090180930801823D910574F15B
:1034900060E078EF86E393E00E94791040924A035F
:1034A00040924B038AE090E0909343038093420361
:1034B000909345038093440386EB91E00E943E1273
:1034C000D0924303C09242038EE190E09093450373
:1034D000809344038091770281111BC08AEA91E0B6
:1034E0000E943E12B0920901A09208018091080149
:1034F0009091090120910A0130910B01309343030F
:103500002093420390934503809344036092720298
:10351000C7CE8EE991E0E4CF86E393E00E94D00E1F
:10352000609175028BE892E00E94ED0580910A019E
:1035300090910B010C968C3221E092070CF052C056
:1035400090930B0180930A018091080190910901E9
:10355000823D9105A4F160E078EF86E393E00E945C
:10356000791040924A0340924B038AE090E0909396
:10357000430380934203909345038093440386EB77
:1035800091E00E943E12D0924303C09242038EE12A
:1035900090E09093450380934403809177028111DA
:1035A00031C08AEA91E00E943E1284E190E090935B
:1035B0000B0180930A01B0920901A0920801809149
:1035C00008019091090120910A0130910B0130937B
:1035D0004303209342039093450380934403109246
:1035E00072025ECE84E190E090930B0180930A0119
:1035F0008091080190910901489690930901809368
:103600000801A2CF8EE991E0CECF60EE71E08BE8A9
:1036100092E00E942F126DED71E08BE892E00E9423
:103620002F12C0CD833009F0C0CE8DE229CE0E948A
:103630001F1B332312F48A1B9B0B0C94301BA29F7D
:10364000B001B39FC001A39F700D811D1124911D76
:10365000B29F700D811D1124911D08950E941F1BA2
:10366000B7FF0895821B930B0895EE0FFF1F05907F
:10367000F491E02D099481E090E0F8940C94401BC3
:04368000F894FFCFEC
:10368400FFFFFFFFFFFFFFFF3200640000000000A8
:10369400ED054D057A053A06AB0589059D05000043
:1036A4000000D00E4D052A122912E407860B540B94
:1036B400EB0A6A0AAB0A7C118A0C010CF70B880925
:1036C400F909770979100110A20F8A125607535489
:1036D4004546414E4F20484F4D4542524557205292
:1036E4005454592000534345474C492042415544C2
:1036F40020524154453A34352F35300046696C65C3
:103704003A4E414E4F5F5446545F4445434F4445FF
:10371400525F4455414C5F424155442D320034358B
:1037240020424155442D4F4B2D0035302042415508
:10373400442D4F4B2D0052545459204445434F447B
:10374400453A0045736567756F20696C206C6F6F2F
:1037540070207365636F6E646172696F000D0A0097
:1037640045736567756F20696C206C6F6F7020708E
:0A37740072696E636970616C650094
:00000001FF
